{
    "_format": "hh-sol-artifact-1",
    "contractName": "Collection",
    "sourceName": "contracts/Collection.sol",
    "abi": [
        {
            "inputs": [],
            "stateMutability": "nonpayable",
            "type": "constructor"
        },
        {
            "inputs": [
                {
                    "internalType": "address",
                    "name": "sender",
                    "type": "address"
                },
                {
                    "internalType": "uint256",
                    "name": "tokenId",
                    "type": "uint256"
                },
                {
                    "internalType": "address",
                    "name": "owner",
                    "type": "address"
                }
            ],
            "name": "ERC721IncorrectOwner",
            "type": "error"
        },
        {
            "inputs": [
                {
                    "internalType": "address",
                    "name": "operator",
                    "type": "address"
                },
                {
                    "internalType": "uint256",
                    "name": "tokenId",
                    "type": "uint256"
                }
            ],
            "name": "ERC721InsufficientApproval",
            "type": "error"
        },
        {
            "inputs": [
                {
                    "internalType": "address",
                    "name": "approver",
                    "type": "address"
                }
            ],
            "name": "ERC721InvalidApprover",
            "type": "error"
        },
        {
            "inputs": [
                {
                    "internalType": "address",
                    "name": "operator",
                    "type": "address"
                }
            ],
            "name": "ERC721InvalidOperator",
            "type": "error"
        },
        {
            "inputs": [
                {
                    "internalType": "address",
                    "name": "owner",
                    "type": "address"
                }
            ],
            "name": "ERC721InvalidOwner",
            "type": "error"
        },
        {
            "inputs": [
                {
                    "internalType": "address",
                    "name": "receiver",
                    "type": "address"
                }
            ],
            "name": "ERC721InvalidReceiver",
            "type": "error"
        },
        {
            "inputs": [
                {
                    "internalType": "address",
                    "name": "sender",
                    "type": "address"
                }
            ],
            "name": "ERC721InvalidSender",
            "type": "error"
        },
        {
            "inputs": [
                {
                    "internalType": "uint256",
                    "name": "tokenId",
                    "type": "uint256"
                }
            ],
            "name": "ERC721NonexistentToken",
            "type": "error"
        },
        {
            "inputs": [
                {
                    "internalType": "address",
                    "name": "owner",
                    "type": "address"
                }
            ],
            "name": "OwnableInvalidOwner",
            "type": "error"
        },
        {
            "inputs": [
                {
                    "internalType": "address",
                    "name": "account",
                    "type": "address"
                }
            ],
            "name": "OwnableUnauthorizedAccount",
            "type": "error"
        },
        {
            "anonymous": false,
            "inputs": [
                {
                    "indexed": true,
                    "internalType": "address",
                    "name": "owner",
                    "type": "address"
                },
                {
                    "indexed": true,
                    "internalType": "address",
                    "name": "approved",
                    "type": "address"
                },
                {
                    "indexed": true,
                    "internalType": "uint256",
                    "name": "tokenId",
                    "type": "uint256"
                }
            ],
            "name": "Approval",
            "type": "event"
        },
        {
            "anonymous": false,
            "inputs": [
                {
                    "indexed": true,
                    "internalType": "address",
                    "name": "owner",
                    "type": "address"
                },
                {
                    "indexed": true,
                    "internalType": "address",
                    "name": "operator",
                    "type": "address"
                },
                {
                    "indexed": false,
                    "internalType": "bool",
                    "name": "approved",
                    "type": "bool"
                }
            ],
            "name": "ApprovalForAll",
            "type": "event"
        },
        {
            "anonymous": false,
            "inputs": [
                {
                    "indexed": false,
                    "internalType": "uint256",
                    "name": "_fromTokenId",
                    "type": "uint256"
                },
                {
                    "indexed": false,
                    "internalType": "uint256",
                    "name": "_toTokenId",
                    "type": "uint256"
                }
            ],
            "name": "BatchMetadataUpdate",
            "type": "event"
        },
        {
            "anonymous": false,
            "inputs": [
                {
                    "indexed": false,
                    "internalType": "uint256",
                    "name": "_tokenId",
                    "type": "uint256"
                }
            ],
            "name": "MetadataUpdate",
            "type": "event"
        },
        {
            "anonymous": false,
            "inputs": [
                {
                    "indexed": true,
                    "internalType": "address",
                    "name": "previousOwner",
                    "type": "address"
                },
                {
                    "indexed": true,
                    "internalType": "address",
                    "name": "newOwner",
                    "type": "address"
                }
            ],
            "name": "OwnershipTransferred",
            "type": "event"
        },
        {
            "anonymous": false,
            "inputs": [
                {
                    "indexed": true,
                    "internalType": "address",
                    "name": "from",
                    "type": "address"
                },
                {
                    "indexed": true,
                    "internalType": "address",
                    "name": "to",
                    "type": "address"
                },
                {
                    "indexed": true,
                    "internalType": "uint256",
                    "name": "tokenId",
                    "type": "uint256"
                }
            ],
            "name": "Transfer",
            "type": "event"
        },
        {
            "inputs": [],
            "name": "LIMIT_PER_ADDRESS",
            "outputs": [
                {
                    "internalType": "uint256",
                    "name": "",
                    "type": "uint256"
                }
            ],
            "stateMutability": "view",
            "type": "function"
        },
        {
            "inputs": [],
            "name": "MAX_SUPPLY",
            "outputs": [
                {
                    "internalType": "uint256",
                    "name": "",
                    "type": "uint256"
                }
            ],
            "stateMutability": "view",
            "type": "function"
        },
        {
            "inputs": [],
            "name": "PRICE_PER_TOKEN",
            "outputs": [
                {
                    "internalType": "uint256",
                    "name": "",
                    "type": "uint256"
                }
            ],
            "stateMutability": "view",
            "type": "function"
        },
        {
            "inputs": [
                {
                    "internalType": "address",
                    "name": "to",
                    "type": "address"
                },
                {
                    "internalType": "uint256",
                    "name": "tokenId",
                    "type": "uint256"
                }
            ],
            "name": "approve",
            "outputs": [],
            "stateMutability": "nonpayable",
            "type": "function"
        },
        {
            "inputs": [
                {
                    "internalType": "address",
                    "name": "owner",
                    "type": "address"
                }
            ],
            "name": "balanceOf",
            "outputs": [
                {
                    "internalType": "uint256",
                    "name": "",
                    "type": "uint256"
                }
            ],
            "stateMutability": "view",
            "type": "function"
        },
        {
            "inputs": [
                {
                    "internalType": "uint256",
                    "name": "tokenId",
                    "type": "uint256"
                }
            ],
            "name": "getApproved",
            "outputs": [
                {
                    "internalType": "address",
                    "name": "",
                    "type": "address"
                }
            ],
            "stateMutability": "view",
            "type": "function"
        },
        {
            "inputs": [
                {
                    "internalType": "address",
                    "name": "owner",
                    "type": "address"
                },
                {
                    "internalType": "address",
                    "name": "operator",
                    "type": "address"
                }
            ],
            "name": "isApprovedForAll",
            "outputs": [
                {
                    "internalType": "bool",
                    "name": "",
                    "type": "bool"
                }
            ],
            "stateMutability": "view",
            "type": "function"
        },
        {
            "inputs": [
                {
                    "internalType": "string",
                    "name": "tokenURI",
                    "type": "string"
                }
            ],
            "name": "mintNFT",
            "outputs": [
                {
                    "internalType": "uint256",
                    "name": "",
                    "type": "uint256"
                }
            ],
            "stateMutability": "payable",
            "type": "function"
        },
        {
            "inputs": [],
            "name": "name",
            "outputs": [
                {
                    "internalType": "string",
                    "name": "",
                    "type": "string"
                }
            ],
            "stateMutability": "view",
            "type": "function"
        },
        {
            "inputs": [],
            "name": "owner",
            "outputs": [
                {
                    "internalType": "address",
                    "name": "",
                    "type": "address"
                }
            ],
            "stateMutability": "view",
            "type": "function"
        },
        {
            "inputs": [
                {
                    "internalType": "uint256",
                    "name": "tokenId",
                    "type": "uint256"
                }
            ],
            "name": "ownerOf",
            "outputs": [
                {
                    "internalType": "address",
                    "name": "",
                    "type": "address"
                }
            ],
            "stateMutability": "view",
            "type": "function"
        },
        {
            "inputs": [],
            "name": "renounceOwnership",
            "outputs": [],
            "stateMutability": "nonpayable",
            "type": "function"
        },
        {
            "inputs": [
                {
                    "internalType": "address",
                    "name": "from",
                    "type": "address"
                },
                {
                    "internalType": "address",
                    "name": "to",
                    "type": "address"
                },
                {
                    "internalType": "uint256",
                    "name": "tokenId",
                    "type": "uint256"
                }
            ],
            "name": "safeTransferFrom",
            "outputs": [],
            "stateMutability": "nonpayable",
            "type": "function"
        },
        {
            "inputs": [
                {
                    "internalType": "address",
                    "name": "from",
                    "type": "address"
                },
                {
                    "internalType": "address",
                    "name": "to",
                    "type": "address"
                },
                {
                    "internalType": "uint256",
                    "name": "tokenId",
                    "type": "uint256"
                },
                {
                    "internalType": "bytes",
                    "name": "data",
                    "type": "bytes"
                }
            ],
            "name": "safeTransferFrom",
            "outputs": [],
            "stateMutability": "nonpayable",
            "type": "function"
        },
        {
            "inputs": [
                {
                    "internalType": "address",
                    "name": "operator",
                    "type": "address"
                },
                {
                    "internalType": "bool",
                    "name": "approved",
                    "type": "bool"
                }
            ],
            "name": "setApprovalForAll",
            "outputs": [],
            "stateMutability": "nonpayable",
            "type": "function"
        },
        {
            "inputs": [
                {
                    "internalType": "uint256",
                    "name": "limit",
                    "type": "uint256"
                }
            ],
            "name": "setLimit",
            "outputs": [],
            "stateMutability": "nonpayable",
            "type": "function"
        },
        {
            "inputs": [
                {
                    "internalType": "uint256",
                    "name": "max_supply",
                    "type": "uint256"
                }
            ],
            "name": "setMaxSupply",
            "outputs": [],
            "stateMutability": "nonpayable",
            "type": "function"
        },
        {
            "inputs": [
                {
                    "internalType": "uint256",
                    "name": "price",
                    "type": "uint256"
                }
            ],
            "name": "setPrice",
            "outputs": [],
            "stateMutability": "nonpayable",
            "type": "function"
        },
        {
            "inputs": [
                {
                    "internalType": "bytes4",
                    "name": "interfaceId",
                    "type": "bytes4"
                }
            ],
            "name": "supportsInterface",
            "outputs": [
                {
                    "internalType": "bool",
                    "name": "",
                    "type": "bool"
                }
            ],
            "stateMutability": "view",
            "type": "function"
        },
        {
            "inputs": [],
            "name": "symbol",
            "outputs": [
                {
                    "internalType": "string",
                    "name": "",
                    "type": "string"
                }
            ],
            "stateMutability": "view",
            "type": "function"
        },
        {
            "inputs": [
                {
                    "internalType": "uint256",
                    "name": "tokenId",
                    "type": "uint256"
                }
            ],
            "name": "tokenURI",
            "outputs": [
                {
                    "internalType": "string",
                    "name": "",
                    "type": "string"
                }
            ],
            "stateMutability": "view",
            "type": "function"
        },
        {
            "inputs": [
                {
                    "internalType": "address",
                    "name": "from",
                    "type": "address"
                },
                {
                    "internalType": "address",
                    "name": "to",
                    "type": "address"
                },
                {
                    "internalType": "uint256",
                    "name": "tokenId",
                    "type": "uint256"
                }
            ],
            "name": "transferFrom",
            "outputs": [],
            "stateMutability": "nonpayable",
            "type": "function"
        },
        {
            "inputs": [
                {
                    "internalType": "address",
                    "name": "newOwner",
                    "type": "address"
                }
            ],
            "name": "transferOwnership",
            "outputs": [],
            "stateMutability": "nonpayable",
            "type": "function"
        },
        {
            "inputs": [],
            "name": "withdrawMoney",
            "outputs": [],
            "stateMutability": "nonpayable",
            "type": "function"
        }
    ],
    "bytecode": "0x608060405260006008556000600955662386f26fc10000600c556002600d556005600e553480156200003057600080fd5b50336040518060400160405280600a81526020017f436f6c6c656374696f6e000000000000000000000000000000000000000000008152506040518060400160405280600381526020017f4e465400000000000000000000000000000000000000000000000000000000008152508160009081620000af919062000491565b508060019081620000c1919062000491565b505050600073ffffffffffffffffffffffffffffffffffffffff168173ffffffffffffffffffffffffffffffffffffffff1603620001395760006040517f1e4fbdf7000000000000000000000000000000000000000000000000000000008152600401620001309190620005bd565b60405180910390fd5b6200014a816200015160201b60201c565b50620005da565b6000600760009054906101000a900473ffffffffffffffffffffffffffffffffffffffff16905081600760006101000a81548173ffffffffffffffffffffffffffffffffffffffff021916908373ffffffffffffffffffffffffffffffffffffffff1602179055508173ffffffffffffffffffffffffffffffffffffffff168173ffffffffffffffffffffffffffffffffffffffff167f8be0079c531659141344cd1fd0a4f28419497f9722a3daafe3b4186f6b6457e060405160405180910390a35050565b600081519050919050565b7f4e487b7100000000000000000000000000000000000000000000000000000000600052604160045260246000fd5b7f4e487b7100000000000000000000000000000000000000000000000000000000600052602260045260246000fd5b600060028204905060018216806200029957607f821691505b602082108103620002af57620002ae62000251565b5b50919050565b60008190508160005260206000209050919050565b60006020601f8301049050919050565b600082821b905092915050565b600060088302620003197fffffffffffffffffffffffffffffffffffffffffffffffffffffffffffffffff82620002da565b620003258683620002da565b95508019841693508086168417925050509392505050565b6000819050919050565b6000819050919050565b6000620003726200036c62000366846200033d565b62000347565b6200033d565b9050919050565b6000819050919050565b6200038e8362000351565b620003a66200039d8262000379565b848454620002e7565b825550505050565b600090565b620003bd620003ae565b620003ca81848462000383565b505050565b5b81811015620003f257620003e6600082620003b3565b600181019050620003d0565b5050565b601f82111562000441576200040b81620002b5565b6200041684620002ca565b8101602085101562000426578190505b6200043e6200043585620002ca565b830182620003cf565b50505b505050565b600082821c905092915050565b6000620004666000198460080262000446565b1980831691505092915050565b600062000481838362000453565b9150826002028217905092915050565b6200049c8262000217565b67ffffffffffffffff811115620004b857620004b762000222565b5b620004c4825462000280565b620004d1828285620003f6565b600060209050601f831160018114620005095760008415620004f4578287015190505b62000500858262000473565b86555062000570565b601f1984166200051986620002b5565b60005b8281101562000543578489015182556001820191506020850194506020810190506200051c565b868310156200056357848901516200055f601f89168262000453565b8355505b6001600288020188555050505b505050505050565b600073ffffffffffffffffffffffffffffffffffffffff82169050919050565b6000620005a58262000578565b9050919050565b620005b78162000598565b82525050565b6000602082019050620005d46000830184620005ac565b92915050565b612d9f80620005ea6000396000f3fe60806040526004361061014b5760003560e01c8063715018a6116100b6578063ac4460021161006f578063ac4460021461047c578063b88d4fde14610493578063c87b56dd146104bc578063e985e9c5146104f9578063f2fde38b14610536578063fb37e8831461055f5761014b565b8063715018a614610392578063833b9499146103a95780638da5cb5b146103d457806391b7f5ed146103ff57806395d89b4114610428578063a22cb465146104535761014b565b806332cb6b0c1161010857806332cb6b0c14610270578063417bac1a1461029b57806342842e0e146102c65780636352211e146102ef5780636f8b44b01461032c57806370a08231146103555761014b565b806301ffc9a71461015057806306fdde031461018d578063081812fc146101b8578063095ea7b3146101f557806323b872dd1461021e57806327ea6f2b14610247575b600080fd5b34801561015c57600080fd5b5061017760048036038101906101729190611fcd565b61058f565b6040516101849190612015565b60405180910390f35b34801561019957600080fd5b506101a26105f0565b6040516101af91906120c0565b60405180910390f35b3480156101c457600080fd5b506101df60048036038101906101da9190612118565b610682565b6040516101ec9190612186565b60405180910390f35b34801561020157600080fd5b5061021c600480360381019061021791906121cd565b61069e565b005b34801561022a57600080fd5b506102456004803603810190610240919061220d565b6106b4565b005b34801561025357600080fd5b5061026e60048036038101906102699190612118565b6107b6565b005b34801561027c57600080fd5b506102856107c8565b604051610292919061226f565b60405180910390f35b3480156102a757600080fd5b506102b06107ce565b6040516102bd919061226f565b60405180910390f35b3480156102d257600080fd5b506102ed60048036038101906102e8919061220d565b6107d4565b005b3480156102fb57600080fd5b5061031660048036038101906103119190612118565b6107f4565b6040516103239190612186565b60405180910390f35b34801561033857600080fd5b50610353600480360381019061034e9190612118565b610806565b005b34801561036157600080fd5b5061037c6004803603810190610377919061228a565b610818565b604051610389919061226f565b60405180910390f35b34801561039e57600080fd5b506103a76108d2565b005b3480156103b557600080fd5b506103be6108e6565b6040516103cb919061226f565b60405180910390f35b3480156103e057600080fd5b506103e96108ec565b6040516103f69190612186565b60405180910390f35b34801561040b57600080fd5b5061042660048036038101906104219190612118565b610916565b005b34801561043457600080fd5b5061043d610928565b60405161044a91906120c0565b60405180910390f35b34801561045f57600080fd5b5061047a600480360381019061047591906122e3565b6109ba565b005b34801561048857600080fd5b506104916109d0565b005b34801561049f57600080fd5b506104ba60048036038101906104b59190612458565b610a27565b005b3480156104c857600080fd5b506104e360048036038101906104de9190612118565b610a4c565b6040516104f091906120c0565b60405180910390f35b34801561050557600080fd5b50610520600480360381019061051b91906124db565b610b5f565b60405161052d9190612015565b60405180910390f35b34801561054257600080fd5b5061055d6004803603810190610558919061228a565b610bf3565b005b610579600480360381019061057491906125bc565b610c79565b604051610586919061226f565b60405180910390f35b6000634906490660e01b7bffffffffffffffffffffffffffffffffffffffffffffffffffffffff1916827bffffffffffffffffffffffffffffffffffffffffffffffffffffffff191614806105e957506105e882610f32565b5b9050919050565b6060600080546105ff90612634565b80601f016020809104026020016040519081016040528092919081815260200182805461062b90612634565b80156106785780601f1061064d57610100808354040283529160200191610678565b820191906000526020600020905b81548152906001019060200180831161065b57829003601f168201915b5050505050905090565b600061068d82611014565b506106978261109c565b9050919050565b6106b082826106ab6110d9565b6110e1565b5050565b600073ffffffffffffffffffffffffffffffffffffffff168273ffffffffffffffffffffffffffffffffffffffff16036107265760006040517f64a0ae9200000000000000000000000000000000000000000000000000000000815260040161071d9190612186565b60405180910390fd5b600061073a83836107356110d9565b6110f3565b90508373ffffffffffffffffffffffffffffffffffffffff168173ffffffffffffffffffffffffffffffffffffffff16146107b0578382826040517f64283d7b0000000000000000000000000000000000000000000000000000000081526004016107a793929190612665565b60405180910390fd5b50505050565b6107be61130d565b80600d8190555050565b600e5481565b600d5481565b6107ef83838360405180602001604052806000815250610a27565b505050565b60006107ff82611014565b9050919050565b61080e61130d565b80600e8190555050565b60008073ffffffffffffffffffffffffffffffffffffffff168273ffffffffffffffffffffffffffffffffffffffff160361088b5760006040517f89c62b640000000000000000000000000000000000000000000000000000000081526004016108829190612186565b60405180910390fd5b600360008373ffffffffffffffffffffffffffffffffffffffff1673ffffffffffffffffffffffffffffffffffffffff168152602001908152602001600020549050919050565b6108da61130d565b6108e46000611394565b565b600c5481565b6000600760009054906101000a900473ffffffffffffffffffffffffffffffffffffffff16905090565b61091e61130d565b80600c8190555050565b60606001805461093790612634565b80601f016020809104026020016040519081016040528092919081815260200182805461096390612634565b80156109b05780601f10610985576101008083540402835291602001916109b0565b820191906000526020600020905b81548152906001019060200180831161099357829003601f168201915b5050505050905090565b6109cc6109c56110d9565b838361145a565b5050565b6109d861130d565b60003390508073ffffffffffffffffffffffffffffffffffffffff166108fc479081150290604051600060405180830381858888f19350505050158015610a23573d6000803e3d6000fd5b5050565b610a328484846106b4565b610a46610a3d6110d9565b858585856115c9565b50505050565b6060610a5782611014565b506000600660008481526020019081526020016000208054610a7890612634565b80601f0160208091040260200160405190810160405280929190818152602001828054610aa490612634565b8015610af15780601f10610ac657610100808354040283529160200191610af1565b820191906000526020600020905b815481529060010190602001808311610ad457829003601f168201915b505050505090506000610b0261177a565b90506000815103610b17578192505050610b5a565b600082511115610b4c578082604051602001610b349291906126d8565b60405160208183030381529060405292505050610b5a565b610b5584611791565b925050505b919050565b6000600560008473ffffffffffffffffffffffffffffffffffffffff1673ffffffffffffffffffffffffffffffffffffffff16815260200190815260200160002060008373ffffffffffffffffffffffffffffffffffffffff1673ffffffffffffffffffffffffffffffffffffffff16815260200190815260200160002060009054906101000a900460ff16905092915050565b610bfb61130d565b600073ffffffffffffffffffffffffffffffffffffffff168173ffffffffffffffffffffffffffffffffffffffff1603610c6d5760006040517f1e4fbdf7000000000000000000000000000000000000000000000000000000008152600401610c649190612186565b60405180910390fd5b610c7681611394565b50565b600034600c541115610cc0576040517f08c379a0000000000000000000000000000000000000000000000000000000008152600401610cb790612748565b60405180910390fd5b600d54600a60003373ffffffffffffffffffffffffffffffffffffffff1673ffffffffffffffffffffffffffffffffffffffff16815260200190815260200160002060009054906101000a900460ff1660ff1610610d53576040517f08c379a0000000000000000000000000000000000000000000000000000000008152600401610d4a906127b4565b60405180910390fd5b600e546001600954610d659190612803565b1115610da6576040517f08c379a0000000000000000000000000000000000000000000000000000000008152600401610d9d90612883565b60405180910390fd5b6000600b83604051610db891906128a3565b908152602001604051809103902060009054906101000a900460ff1660ff1614610e17576040517f08c379a0000000000000000000000000000000000000000000000000000000008152600401610e0e90612906565b60405180910390fd5b6001600b83604051610e2991906128a3565b908152602001604051809103902060008282829054906101000a900460ff16610e529190612933565b92506101000a81548160ff021916908360ff1602179055506001600a60003373ffffffffffffffffffffffffffffffffffffffff1673ffffffffffffffffffffffffffffffffffffffff16815260200190815260200160002060008282829054906101000a900460ff16610ec69190612933565b92506101000a81548160ff021916908360ff16021790555060006008549050610eef33826117fa565b610ef981846118f3565b60086000815480929190610f0c90612968565b919050555060096000815480929190610f2490612968565b919050555080915050919050565b60007f80ac58cd000000000000000000000000000000000000000000000000000000007bffffffffffffffffffffffffffffffffffffffffffffffffffffffff1916827bffffffffffffffffffffffffffffffffffffffffffffffffffffffff19161480610ffd57507f5b5e139f000000000000000000000000000000000000000000000000000000007bffffffffffffffffffffffffffffffffffffffffffffffffffffffff1916827bffffffffffffffffffffffffffffffffffffffffffffffffffffffff1916145b8061100d575061100c8261194f565b5b9050919050565b600080611020836119b9565b9050600073ffffffffffffffffffffffffffffffffffffffff168173ffffffffffffffffffffffffffffffffffffffff160361109357826040517f7e27328900000000000000000000000000000000000000000000000000000000815260040161108a919061226f565b60405180910390fd5b80915050919050565b60006004600083815260200190815260200160002060009054906101000a900473ffffffffffffffffffffffffffffffffffffffff169050919050565b600033905090565b6110ee83838360016119f6565b505050565b6000806110ff846119b9565b9050600073ffffffffffffffffffffffffffffffffffffffff168373ffffffffffffffffffffffffffffffffffffffff161461114157611140818486611bbb565b5b600073ffffffffffffffffffffffffffffffffffffffff168173ffffffffffffffffffffffffffffffffffffffff16146111d2576111836000856000806119f6565b6001600360008373ffffffffffffffffffffffffffffffffffffffff1673ffffffffffffffffffffffffffffffffffffffff168152602001908152602001600020600082825403925050819055505b600073ffffffffffffffffffffffffffffffffffffffff168573ffffffffffffffffffffffffffffffffffffffff1614611255576001600360008773ffffffffffffffffffffffffffffffffffffffff1673ffffffffffffffffffffffffffffffffffffffff168152602001908152602001600020600082825401925050819055505b846002600086815260200190815260200160002060006101000a81548173ffffffffffffffffffffffffffffffffffffffff021916908373ffffffffffffffffffffffffffffffffffffffff160217905550838573ffffffffffffffffffffffffffffffffffffffff168273ffffffffffffffffffffffffffffffffffffffff167fddf252ad1be2c89b69c2b068fc378daa952ba7f163c4a11628f55a4df523b3ef60405160405180910390a4809150509392505050565b6113156110d9565b73ffffffffffffffffffffffffffffffffffffffff166113336108ec565b73ffffffffffffffffffffffffffffffffffffffff1614611392576113566110d9565b6040517f118cdaa70000000000000000000000000000000000000000000000000000000081526004016113899190612186565b60405180910390fd5b565b6000600760009054906101000a900473ffffffffffffffffffffffffffffffffffffffff16905081600760006101000a81548173ffffffffffffffffffffffffffffffffffffffff021916908373ffffffffffffffffffffffffffffffffffffffff1602179055508173ffffffffffffffffffffffffffffffffffffffff168173ffffffffffffffffffffffffffffffffffffffff167f8be0079c531659141344cd1fd0a4f28419497f9722a3daafe3b4186f6b6457e060405160405180910390a35050565b600073ffffffffffffffffffffffffffffffffffffffff168273ffffffffffffffffffffffffffffffffffffffff16036114cb57816040517f5b08ba180000000000000000000000000000000000000000000000000000000081526004016114c29190612186565b60405180910390fd5b80600560008573ffffffffffffffffffffffffffffffffffffffff1673ffffffffffffffffffffffffffffffffffffffff16815260200190815260200160002060008473ffffffffffffffffffffffffffffffffffffffff1673ffffffffffffffffffffffffffffffffffffffff16815260200190815260200160002060006101000a81548160ff0219169083151502179055508173ffffffffffffffffffffffffffffffffffffffff168373ffffffffffffffffffffffffffffffffffffffff167f17307eab39ab6107e8899845ad3d59bd9653f200f220920489ca2b5937696c31836040516115bc9190612015565b60405180910390a3505050565b60008373ffffffffffffffffffffffffffffffffffffffff163b1115611773578273ffffffffffffffffffffffffffffffffffffffff1663150b7a02868685856040518563ffffffff1660e01b81526004016116289493929190612a05565b6020604051808303816000875af192505050801561166457506040513d601f19601f820116820180604052508101906116619190612a66565b60015b6116e8573d8060008114611694576040519150601f19603f3d011682016040523d82523d6000602084013e611699565b606091505b5060008151036116e057836040517f64a0ae920000000000000000000000000000000000000000000000000000000081526004016116d79190612186565b60405180910390fd5b805181602001fd5b63150b7a0260e01b7bffffffffffffffffffffffffffffffffffffffffffffffffffffffff1916817bffffffffffffffffffffffffffffffffffffffffffffffffffffffff19161461177157836040517f64a0ae920000000000000000000000000000000000000000000000000000000081526004016117689190612186565b60405180910390fd5b505b5050505050565b606060405180602001604052806000815250905090565b606061179c82611014565b5060006117a761177a565b905060008151116117c757604051806020016040528060008152506117f2565b806117d184611c7f565b6040516020016117e29291906126d8565b6040516020818303038152906040525b915050919050565b600073ffffffffffffffffffffffffffffffffffffffff168273ffffffffffffffffffffffffffffffffffffffff160361186c5760006040517f64a0ae920000000000000000000000000000000000000000000000000000000081526004016118639190612186565b60405180910390fd5b600061187a838360006110f3565b9050600073ffffffffffffffffffffffffffffffffffffffff168173ffffffffffffffffffffffffffffffffffffffff16146118ee5760006040517f73c6ac6e0000000000000000000000000000000000000000000000000000000081526004016118e59190612186565b60405180910390fd5b505050565b806006600084815260200190815260200160002090816119139190612c3f565b507ff8e1a15aba9398e019f0b49df1a4fde98ee17ae345cb5f6b5e2c27f5033e8ce782604051611943919061226f565b60405180910390a15050565b60007f01ffc9a7000000000000000000000000000000000000000000000000000000007bffffffffffffffffffffffffffffffffffffffffffffffffffffffff1916827bffffffffffffffffffffffffffffffffffffffffffffffffffffffff1916149050919050565b60006002600083815260200190815260200160002060009054906101000a900473ffffffffffffffffffffffffffffffffffffffff169050919050565b8080611a2f5750600073ffffffffffffffffffffffffffffffffffffffff168273ffffffffffffffffffffffffffffffffffffffff1614155b15611b63576000611a3f84611014565b9050600073ffffffffffffffffffffffffffffffffffffffff168373ffffffffffffffffffffffffffffffffffffffff1614158015611aaa57508273ffffffffffffffffffffffffffffffffffffffff168173ffffffffffffffffffffffffffffffffffffffff1614155b8015611abd5750611abb8184610b5f565b155b15611aff57826040517fa9fbf51f000000000000000000000000000000000000000000000000000000008152600401611af69190612186565b60405180910390fd5b8115611b6157838573ffffffffffffffffffffffffffffffffffffffff168273ffffffffffffffffffffffffffffffffffffffff167f8c5be1e5ebec7d5bd14f71427d1e84f3dd0314c0f7b2291e5b200ac8c7c3b92560405160405180910390a45b505b836004600085815260200190815260200160002060006101000a81548173ffffffffffffffffffffffffffffffffffffffff021916908373ffffffffffffffffffffffffffffffffffffffff16021790555050505050565b611bc6838383611d4d565b611c7a57600073ffffffffffffffffffffffffffffffffffffffff168373ffffffffffffffffffffffffffffffffffffffff1603611c3b57806040517f7e273289000000000000000000000000000000000000000000000000000000008152600401611c32919061226f565b60405180910390fd5b81816040517f177e802f000000000000000000000000000000000000000000000000000000008152600401611c71929190612d11565b60405180910390fd5b505050565b606060006001611c8e84611e0e565b01905060008167ffffffffffffffff811115611cad57611cac61232d565b5b6040519080825280601f01601f191660200182016040528015611cdf5781602001600182028036833780820191505090505b509050600082602001820190505b600115611d42578080600190039150507f3031323334353637383961626364656600000000000000000000000000000000600a86061a8153600a8581611d3657611d35612d3a565b5b04945060008503611ced575b819350505050919050565b60008073ffffffffffffffffffffffffffffffffffffffff168373ffffffffffffffffffffffffffffffffffffffff1614158015611e0557508273ffffffffffffffffffffffffffffffffffffffff168473ffffffffffffffffffffffffffffffffffffffff161480611dc65750611dc58484610b5f565b5b80611e0457508273ffffffffffffffffffffffffffffffffffffffff16611dec8361109c565b73ffffffffffffffffffffffffffffffffffffffff16145b5b90509392505050565b600080600090507a184f03e93ff9f4daa797ed6e38ed64bf6a1f0100000000000000008310611e6c577a184f03e93ff9f4daa797ed6e38ed64bf6a1f0100000000000000008381611e6257611e61612d3a565b5b0492506040810190505b6d04ee2d6d415b85acef81000000008310611ea9576d04ee2d6d415b85acef81000000008381611e9f57611e9e612d3a565b5b0492506020810190505b662386f26fc100008310611ed857662386f26fc100008381611ece57611ecd612d3a565b5b0492506010810190505b6305f5e1008310611f01576305f5e1008381611ef757611ef6612d3a565b5b0492506008810190505b6127108310611f26576127108381611f1c57611f1b612d3a565b5b0492506004810190505b60648310611f495760648381611f3f57611f3e612d3a565b5b0492506002810190505b600a8310611f58576001810190505b80915050919050565b6000604051905090565b600080fd5b600080fd5b60007fffffffff0000000000000000000000000000000000000000000000000000000082169050919050565b611faa81611f75565b8114611fb557600080fd5b50565b600081359050611fc781611fa1565b92915050565b600060208284031215611fe357611fe2611f6b565b5b6000611ff184828501611fb8565b91505092915050565b60008115159050919050565b61200f81611ffa565b82525050565b600060208201905061202a6000830184612006565b92915050565b600081519050919050565b600082825260208201905092915050565b60005b8381101561206a57808201518184015260208101905061204f565b60008484015250505050565b6000601f19601f8301169050919050565b600061209282612030565b61209c818561203b565b93506120ac81856020860161204c565b6120b581612076565b840191505092915050565b600060208201905081810360008301526120da8184612087565b905092915050565b6000819050919050565b6120f5816120e2565b811461210057600080fd5b50565b600081359050612112816120ec565b92915050565b60006020828403121561212e5761212d611f6b565b5b600061213c84828501612103565b91505092915050565b600073ffffffffffffffffffffffffffffffffffffffff82169050919050565b600061217082612145565b9050919050565b61218081612165565b82525050565b600060208201905061219b6000830184612177565b92915050565b6121aa81612165565b81146121b557600080fd5b50565b6000813590506121c7816121a1565b92915050565b600080604083850312156121e4576121e3611f6b565b5b60006121f2858286016121b8565b925050602061220385828601612103565b9150509250929050565b60008060006060848603121561222657612225611f6b565b5b6000612234868287016121b8565b9350506020612245868287016121b8565b925050604061225686828701612103565b9150509250925092565b612269816120e2565b82525050565b60006020820190506122846000830184612260565b92915050565b6000602082840312156122a05761229f611f6b565b5b60006122ae848285016121b8565b91505092915050565b6122c081611ffa565b81146122cb57600080fd5b50565b6000813590506122dd816122b7565b92915050565b600080604083850312156122fa576122f9611f6b565b5b6000612308858286016121b8565b9250506020612319858286016122ce565b9150509250929050565b600080fd5b600080fd5b7f4e487b7100000000000000000000000000000000000000000000000000000000600052604160045260246000fd5b61236582612076565b810181811067ffffffffffffffff821117156123845761238361232d565b5b80604052505050565b6000612397611f61565b90506123a3828261235c565b919050565b600067ffffffffffffffff8211156123c3576123c261232d565b5b6123cc82612076565b9050602081019050919050565b82818337600083830152505050565b60006123fb6123f6846123a8565b61238d565b90508281526020810184848401111561241757612416612328565b5b6124228482856123d9565b509392505050565b600082601f83011261243f5761243e612323565b5b813561244f8482602086016123e8565b91505092915050565b6000806000806080858703121561247257612471611f6b565b5b6000612480878288016121b8565b9450506020612491878288016121b8565b93505060406124a287828801612103565b925050606085013567ffffffffffffffff8111156124c3576124c2611f70565b5b6124cf8782880161242a565b91505092959194509250565b600080604083850312156124f2576124f1611f6b565b5b6000612500858286016121b8565b9250506020612511858286016121b8565b9150509250929050565b600067ffffffffffffffff8211156125365761253561232d565b5b61253f82612076565b9050602081019050919050565b600061255f61255a8461251b565b61238d565b90508281526020810184848401111561257b5761257a612328565b5b6125868482856123d9565b509392505050565b600082601f8301126125a3576125a2612323565b5b81356125b384826020860161254c565b91505092915050565b6000602082840312156125d2576125d1611f6b565b5b600082013567ffffffffffffffff8111156125f0576125ef611f70565b5b6125fc8482850161258e565b91505092915050565b7f4e487b7100000000000000000000000000000000000000000000000000000000600052602260045260246000fd5b6000600282049050600182168061264c57607f821691505b60208210810361265f5761265e612605565b5b50919050565b600060608201905061267a6000830186612177565b6126876020830185612260565b6126946040830184612177565b949350505050565b600081905092915050565b60006126b282612030565b6126bc818561269c565b93506126cc81856020860161204c565b80840191505092915050565b60006126e482856126a7565b91506126f082846126a7565b91508190509392505050565b7f4574686572207061696420697320696e636f7272656374000000000000000000600082015250565b600061273260178361203b565b915061273d826126fc565b602082019050919050565b6000602082019050818103600083015261276181612725565b9050919050565b7f596f752068617665206578636565646564206d696e6974696e67206c696d6974600082015250565b600061279e60208361203b565b91506127a982612768565b602082019050919050565b600060208201905081810360008301526127cd81612791565b9050919050565b7f4e487b7100000000000000000000000000000000000000000000000000000000600052601160045260246000fd5b600061280e826120e2565b9150612819836120e2565b9250828201905080821115612831576128306127d4565b5b92915050565b7f596f752068617665206578636565646564204d617820537570706c7900000000600082015250565b600061286d601c8361203b565b915061287882612837565b602082019050919050565b6000602082019050818103600083015261289c81612860565b9050919050565b60006128af82846126a7565b915081905092915050565b7f54686973204e46542068617320616c7265616479206265656e206d696e746564600082015250565b60006128f060208361203b565b91506128fb826128ba565b602082019050919050565b6000602082019050818103600083015261291f816128e3565b9050919050565b600060ff82169050919050565b600061293e82612926565b915061294983612926565b9250828201905060ff811115612962576129616127d4565b5b92915050565b6000612973826120e2565b91507fffffffffffffffffffffffffffffffffffffffffffffffffffffffffffffffff82036129a5576129a46127d4565b5b600182019050919050565b600081519050919050565b600082825260208201905092915050565b60006129d7826129b0565b6129e181856129bb565b93506129f181856020860161204c565b6129fa81612076565b840191505092915050565b6000608082019050612a1a6000830187612177565b612a276020830186612177565b612a346040830185612260565b8181036060830152612a4681846129cc565b905095945050505050565b600081519050612a6081611fa1565b92915050565b600060208284031215612a7c57612a7b611f6b565b5b6000612a8a84828501612a51565b91505092915050565b60008190508160005260206000209050919050565b60006020601f8301049050919050565b600082821b905092915050565b600060088302612af57fffffffffffffffffffffffffffffffffffffffffffffffffffffffffffffffff82612ab8565b612aff8683612ab8565b95508019841693508086168417925050509392505050565b6000819050919050565b6000612b3c612b37612b32846120e2565b612b17565b6120e2565b9050919050565b6000819050919050565b612b5683612b21565b612b6a612b6282612b43565b848454612ac5565b825550505050565b600090565b612b7f612b72565b612b8a818484612b4d565b505050565b5b81811015612bae57612ba3600082612b77565b600181019050612b90565b5050565b601f821115612bf357612bc481612a93565b612bcd84612aa8565b81016020851015612bdc578190505b612bf0612be885612aa8565b830182612b8f565b50505b505050565b600082821c905092915050565b6000612c1660001984600802612bf8565b1980831691505092915050565b6000612c2f8383612c05565b9150826002028217905092915050565b612c4882612030565b67ffffffffffffffff811115612c6157612c6061232d565b5b612c6b8254612634565b612c76828285612bb2565b600060209050601f831160018114612ca95760008415612c97578287015190505b612ca18582612c23565b865550612d09565b601f198416612cb786612a93565b60005b82811015612cdf57848901518255600182019150602085019450602081019050612cba565b86831015612cfc5784890151612cf8601f891682612c05565b8355505b6001600288020188555050505b505050505050565b6000604082019050612d266000830185612177565b612d336020830184612260565b9392505050565b7f4e487b7100000000000000000000000000000000000000000000000000000000600052601260045260246000fdfea2646970667358221220f4dd271ff5970179242c6d6b2d5273ae3399c5c1f8d6a87e68d1f5a58c84637064736f6c63430008140033",
    "linkReferences": {},
    "deployedLinkReferences": {}
}